S015000067616D655F70726F6A656374312E73726563EE
S315000000000004002071060000150500006D060000C2
S315000000106D0600006D0600006D0600006D0600000E
S315000000200000000000000000000000006D06000057
S315000000306D060000000000006D0600006D06000061
S315000000400348044B834202D0034B03B11847704761
S3150000005084A2000184A2000100000000064B0749AB
S31500000060C91A891048BF0131491003D0044B0BB19E
S3150000007001481847704700BF84A2000184A200010E
S315000000800000000010B5064C237843B9FFF7D8FFEF
S31500000090044B13B10448AFF300800123237010BD55
S315000000A01C0400200000000084A2000108B5054BD6
S315000000B01BB105490548AFF30080BDE80840FFF7CE
S315000000C0CDBF00BF000000002004002084A2000174
S315000000D0704700BF022800D070470249024800F06E
S315000000E0D5B800BFC80700003804002008B5FFF7E0
S315000000F0EFFF002008BD00BF2DE9F84F0388DBB1F4
S3150000010082464FF0000B4FF00109DFF8D080002443
S31500000110304D4FEACB07DAF8043035F8022BD919FF
S31500000120898891420AD00134032CF4D1BAF8003000
S315000001300BF1010B5B45EAD8BDE8F88FDB5909FAEC
S3150000014004F603F0B853B3F1807FF6B298F8BB34E7
S3150000015013D0334231D1204A04F1200612F816306A
S31500000160DB09E0D012F81630012123F08003C82005
S3150000017002F8163000F0A2F9D5E7334211D0164A3C
S3150000018004F1200112F81130DB09CCD112F811303C
S31500000190C82043F0800302F81130012100F08EF9E7
S315000001A0C1E7012000F038FA98F8BB340120334348
S315000001B088F8BB3400F000FAE1E7012000F02CFAE1
S315000001C098F8BB34012023EA060388F8BB3400F014
S315000001D0F3F9C0E7140800000030084000E00140D1
S315000001E0F8B50646FFF788FFEFF31082012383F385
S315000001F01088234F3B681BB92249CB704023CB7034
S315000002003B6801333B6082F31088338823B30021B7
S315000002101D4D08E01B01134445F823403288013187
S315000002208BB29A4218D9736853F8314003EBC10276
S315000002309288E0034FEA1223D2B2EBD502EB031009
S3150000024055F820E024F4803C2EF4803E45F820E06A
S315000002501B0145F820C0DEE7EFF31082012383F38C
S3150000026010883B6813B13B68013B3B603B681BB998
S3150000027080200449CB70C87082F31088F8BD00BF97
S3150000028078040020000D08400008084008B5034B1C
S3150000029003600846FFF7A4FF002008BD54524F50E4
S315000002A0064B074993F826001A6A51F82030C2F324
S315000002B002620449D3400B60704700BF00E0014072
S315000002C00004002088040020704700BFF8B54AF2F9
S315000002D0035001233F49404AA1F8FE03A2F8043126
S315000002E0B2F804319BB2002BFAD14FF400404FF024
S315000002F0010C0925394C3A4F3A4E67603A4F354959
S31500000300E7603A4F6761A2F800C12660A0602061ED
S3150000031091F82620086A54F82220354EC0F3026070
S31500000320C240326081F8133481F8A25091F88034CB
S315000003301BB991F88134990746D0264D95F880343B
S31500000340002B36D00022234B83F8812483F88024A7
S315000003500023204981F8323091F83C301A07FBD54A
S3150000036043F2021000231B4A088581F82A3092F8CE
S315000003703C309B06FBD5012005231749F12581F862
S315000003801C011C49116282F8263092F82630106A48
S3150000039054F82310C0F30260C14031600024F020FD
S315000003A04FF42541144B1D731C721873A2F8FE13EB
S315000003B0F8BD0121C82085F8801400F07FF895F873
S315000003C08034012BFBD1BDE74FF47A70FFF77CFF39
S315000003D0BEE700BF00E0014000C00140000400206D
S315000003E000127A00002D310100366E0100C2EB0BBF
S315000003F088040020211202210020004038B5002583
S31500000400284C0121C82084F8285000F057F884F8B9
S31500000410245094F82430002BFBD194F82430214941
S3150000042043F0020384F8243091F82430C3F34000EB
S315000004309B07F9D41B4A81F8220092F8223003F078
S31500000440FF00002BF9D192F84030164960F3C7132C
S3150000045082F8403091F84030DB09FBD191F8420038
S31500000460104A63F3C71081F8420092F84230DB0964
S31500000470FBD192F844000B4963F3C71082F844009D
S3150000048091F84430C3F3C014DB09F9D1012000F020
S31500000490C3F8054B012083F8BB44BDE8384000F0A3
S315000004A08BB800BF0030084000E00140704700BF35
S315000004B0A0F101000028FBD1704700BF4FF47A730A
S315000004C010B400FB01F1114C114A2468B2FBF4F29E
S315000004D0A1FB03043CB9B0FBF2F0800860B15DF803
S315000004E0044BFFF7E5BF9200B1FBF2F1A1FB03134A
S315000004F02BB908460028F2D15DF8044B70474FF03F
S31500000500FF3C5DF8044B6046FFF7D2BF880400202D
S3150000051000CA9A3B70B500240B4B0C4EB3F8202151
S31500000520B3F84051ADB2154025FA04F3DB0704D504
S3150000053056F82430E0B203B1984701340E2CF3D1BB
S31500000540014BA3F8305170BD00600040400400200C
S3150000055010B5032084B000F05FF84FF0FF326FF063
S31500000560FF011148114B04889964CDE901220392D9
S315000005701CB16FF001031A4601930C490C4B0A6734
S31500000580C3F88022029A03204A67C3F88422039A9A
S315000005908A67C3F8882200F00FF814B1054BC3F838
S315000005A0004304B010BD00BF680800000080004092
S315000005B000E100E000600040EFF31081012383F3C7
S315000005C01088124B33F8102092B22AB133F810205B
S315000005D0013A92B223F8102033F810309BB293B947
S315000005E010B40B4A0B4CB2F8FE3334F810009BB231
S315000005F043F4254323EA0003A2F8FE3381F310886F
S315000006005DF8044B704781F3108870477C04002026
S3150000061000E001406C08000030B4EFF310810123C4
S3150000062083F310880E4A32F810309BB26BB90D4C2A
S315000006300D4DB4F8FE3335F810C09BB243EA0C03F7
S3150000064043F425439BB2A4F8FE3332F8103001334D
S315000006509BB222F8103081F3108830BC704700BF7F
S315000006607C04002000E001406C08000000BE7047DA
S3150000067008B500F035F8FFF739FDFEE7F8B5174F76
S3150000068005463E68A6B17C6806EB460604EB860680
S3150000069002E00C34B4420BD0637AAB42F9D1D4E910
S315000006A000020021121A0C3400F078F8B442F3D19B
S315000006B0BE6896B1FC6804EB061602E01034A6424A
S315000006C00BD0637BAB42F9D1D4E90002A168121AC0
S315000006D0103400F06BF8A642F3D1F8BD1C080000F8
S315000006E04FF47001264B274A70B50020C3F88810D6
S315000006F09A60FFF7EFFCFFF7E9FD0120FFF7EAFC40
S31500000700214B83F30A880020FFF7B8FFFFF7C8FDE7
S31500000710FFF774FE0320FFF77FFF4FF6FF720024FA
S315000007201A4B03201A825A829A82DA821A835A83D1
S315000007309A83DA83FFF740FF0320FFF76DFF144B20
S3150000074003205C609C60DC601C61FFF735FF0220C3
S31500000750FFF7C0FC0120FFF791FF0E4D0E4B5B1B10
S31500000760A34206DD9E1055F8043B01349847A64285
S31500000770F9DCFFF7EDFEBDE870400020FFF796BEFE
S3150000078000ED00E00000000000000020000D084021
S3150000079000000E40D0080000D408000002440346C2
S315000007A0934200D1704703F8011BF9E70A44431E40
S315000007B0914200D1704710B511F8014B914203F8F0
S315000007C0014FF9D110BD000008000000D407000059
S315000007D00000000000000100080100000000010305
S315000007E00A010000040000000C01000000000103E3
S315000007F00C020000040000000D02000000000100D1
S3150000080000030000040000000704000004000000CC
S3150000081008040000020403040404000001000000B0
S315000008205C080000030000002C0800000000002007
S31500000830000000200000006000010C030000002002
S315000008400000002000000008000002030000002055
S315000008500000002040000000000001031C040020EE
S315000008608C040020000000030000000001000200CC
S3150000087008001000200000004275696C742077693A
S3150000088074682052656E6573617320416476616E8B
S3150000089063656420466C657869626C6520536F6693
S315000008A07477617265205061636B61676520766558
S315000008B07273696F6E20362E342E3000362E342E2B
S30D000008C03000000000000406F0
S309000008C8F8B500BFBA
S309000008CCF8B500BFB6
S309000008D0AD00000071
S309000008D48500000095
S3090100A100FFFFFFFF58
S3090100A200FFFDFFFF59
S3090100A280F8F8FFFFE5
S7050000067183
